:020000040800F2
:10000000480600209D01000873150008C11400086F
:1000100071150008A9020008EF1700080000000091
:10002000000000000000000000000000771500083C
:100030004503000800000000751500087915000848
:10004000B7010008B7010008B7010008B7010008B0
:10005000B7010008B7010008B7010008B7010008A0
:10006000B7010008B7010008B7010008B701000890
:10007000B7010008B7010008B7010008B701000880
:10008000B7010008B7010008B7010008B90200086D
:10009000AD020008B7010008B7010008B701000869
:1000A000B7010008B7010008B7010008B701000850
:1000B000B7010008B7010008B7010008B701000840
:1000C000B7010008B7010008B7010008B701000830
:1000D000B7010008B7010008B7010008B701000820
:1000E000B7010008B7010008B7010008B701000810
:1000F000B7010008B7010008B7010008B701000800
:10010000B7010008B7010008B7010008B7010008EF
:10011000B7010008B7010008B7010008B7010008DF
:10012000B7010008B7010008B7010008B7010008CF
:10013000B7010008B7010008B7010008B7010008BF
:10014000B7010008B7010008B7010008B7010008AF
:10015000B7010008B7010008B7010008B70100089F
:10016000B7010008B7010008B7010008B70100088F
:10017000B7010008B7010008B7010008000000003F
:10018000B7010008B7010008DFF80CD000F07AF8DA
:100190000048004705190008480600200648804727
:1001A00006480047FEE7FEE7FEE7FEE7FEE7FEE75C
:1001B000FEE7FEE7FEE7FEE71116000889010008EA
:1001C0002DE9F05F0546002092469B46884606468C
:1001D000814640241BE0284641464746224600F01F
:1001E00041F853465A46C01A914110D31146184659
:1001F000224600F028F82D1A67EB01084F462246E8
:100200000120002100F01FF817EB00094E41201ECD
:10021000A4F10104DFDC484631462A464346BDE8E6
:10022000F09FD2B201E000F8012B491EFBD27047CB
:100230000022F6E710B513460A4604461946FFF7B2
:10024000F0FF204610BD202A04DB203A00FA02F11C
:10025000002070479140C2F1200320FA03F31943B4
:1002600090407047202A04DB203A21FA02F0002156
:10027000704721FA02F3D040C2F1200291400843B6
:1002800019467047064C074D06E0E06840F0010350
:1002900094E8070098471034AC42F6D3FFF778FF94
:1002A000A41A0008C41A0008FEE70000014800F084
:1002B000BEB90000D8010020014800F0B8B9000024
:1002C000D801002038B51D4C1D4BF0EE402A00210E
:1002D00001EB410004EB8002B2F9060000EE100AC7
:1002E00001EB810000EBC100F8EEC00A03EB8000D7
:1002F000B0EE620A01F046FBBDEEC00A491CC9B26D
:1003000010EE100A07295080E2D3B4F926000090BD
:10031000B4F91A30B4F90E20B4F90210002001F03B
:1003200087FB00200090B4F94A30B4F93E20B4F9BC
:100330003210012001F07CFB38BD000018000020C5
:100340006C000020704772B6FEE790F82020012A6A
:1003500007D0022A05D0416A41F480214162012080
:100360007047006842690A43426100207047F0B557
:1003700090F820500468A468012D05D0022D03D008
:10038000416A41F480214DE014F0406F01D1E50055
:1003900045D5C4F301640125A5401D608D684FF467
:1003A000C0739DB1CE6835434E6845EAC605066800
:1003B00003EB0417F5514FF4C275076805EB0415FC
:1003C0000E697E51097D012905D009E00E88CD68AE
:1003D00045EA4655EBE701684E5946F480764E51A2
:1003E0001179D2F805504FF4C67641EA0521056827
:1003F00006EB0416A9511178D2F801204FF4C47508
:1004000041EA0221026805EB04155151006803EB33
:100410000411425842F0010242500020F0BD416AEE
:1004200041F4001141620120F0BD000010B590F8C8
:100430002020012A07D0022A05D0416A41F48021F8
:100440004162012010BD3B48D0F8002242F0010279
:10045000C0F80022D0F8002222F47C52C0F800221A
:10046000D0F800224B6A42EA0322C0F800220A7D3B
:1004700002F01F0301229A40D0F81C329343C0F8C7
:100480001C32CB69B3B9D0F80C329343C0F80C32AC
:100490008C894B6864F31F434C6900EBC404C4F8B7
:1004A00040320C890B6864F31F434C6900EBC404B1
:1004B000C4F84432CB69012B16D1D0F80C32134367
:1004C000C0F80C320C884B6864F31F434C6900EB96
:1004D000C404C4F840320C89CB6864F31F434C69F0
:1004E00000EBC404C4F844328B69002BD0F804320A
:1004F0000ED01343C0F804320B69002BD0F814322D
:1005000008D01343C0F81432096A012904D008E066
:100510009343EFE79343F5E7D0F81C121143C0F87B
:100520001C12D0F8001221F00101C0F800120020C6
:1005300010BD000000640040704770B590F8204086
:10054000012C05D0022C03D0416A41F4802128E01F
:10055000046809B32469A40720D04FF4D87405684F
:1005600004EB01142D5915F00405956005682D590B
:100570001AD0ED08556005682C5904F00204D460C7
:100580004FF4DA74056804EB01142E5906F00F06D7
:10059000082E0CD308250DE0E468DCE7416A41F43D
:1005A00000114162012070BD6D0D1560E3E72D590A
:1005B00005F00F05156105682D59C5F307259561EF
:1005C00005682C59240C54614FF4DC72046802EB6A
:1005D0000112A4581C700468A458240A5C700468B2
:1005E000A458240C9C700468A258120EDA704FF4C0
:1005F000DE72046802EB0112A4581C710468A4584E
:10060000240A5C710468A458240C9C710468A258E4
:10061000120EDA71006829B1016941F0200101610F
:10062000002070BDC16841F02001C160F8E72DE9EC
:10063000F05F0546006800244669D0F8049087689A
:10064000D0F80CB0D0F810A0D0F81880F10748D03E
:10065000F90714D001218160B80703D5284600F0BE
:1006600022FA0CE0780702D54FF4006407E038075F
:1006700002D54FF4805402E0284600F013FAF80542
:1006800016D529684FF480708860B80503D52846D0
:1006900000F00BFA0CE0780502D544F4005407E0B2
:1006A000380502D544F4804402E0284600F0FCF905
:1006B000F80316D529684FF480308860B80303D555
:1006C000284600F0F4F90CE0780302D544F4004425
:1006D00007E0380302D544F4803402E0284600F0F5
:1006E000E5F9300707D55FEACB6004D5296810200B
:1006F00044F40074C86070074FF0080707D55FEA3C
:100700000B7004D52868C760284600F061F9B0076F
:1007100006D52868C068800702D0284600F05AF93C
:10072000700607D55FEACA6004D52968102044F432
:1007300080640861B00607D55FEA0A7004D52868AE
:100740000761284600F07EF9F00606D528680069A2
:10075000800702D0284600F076F9B00308D55FEA9A
:10076000C96005D5296810204860284600F06CF95A
:10077000F00307D55FEA097004D52868476028466A
:1007800000F096F9300446D55FEA497040D5F0058F
:1007900004D55FEAC87001D044F00104B00504D567
:1007A0005FEA887001D544F00204700504D55FEA61
:1007B000487001D544F00404300529D518F0700FB5
:1007C00026D008F07000402815D006DC102809D08B
:1007D00020280AD0302816D10AE050280ED06028F0
:1007E00011D10EE044F008040DE044F010040AE0DA
:1007F00044F0200407E044F0400404E044F08004A6
:1008000001E044F480742868816921F070018161FD
:10081000296804204860002C05D0686A204368627B
:100820002846FFF789FEBDE8F09F70B5040003D0AD
:1008300094F8200010B104E0012070BD204600F0C3
:1008400081F82068016841F00101016000F02AFA96
:100850000546052604E000F025FA401B0A2811D8B9
:1008600020684068C007F6D02068016821F00201C6
:10087000016000F017FA05460BE000F013FA401B88
:100880000A2806D9606A40F40030606284F820606B
:10089000D2E7206840688007EFD4207E01282068D6
:1008A00001683DD021F080010160607E0128206850
:1008B000016838D021F040010160A07E0128206845
:1008C000016833D021F020010160E07E012820681A
:1008D00001682ED041F010010160207F01282068BE
:1008E000016829D021F008010160607F012820689B
:1008F000016824D021F004010160D4E90201084319
:10090000D4E90412114308436168491E0843216871
:10091000C86100206062012084F82000002070BDC2
:1009200041F08001C0E741F04001C5E741F02001FE
:10093000CAE721F01001CFE741F00801D4E741F008
:100940000401D9E710B586B0044614216846FFF7C4
:100950006FFC1C492068884231D11B480021026885
:1009600042F000720260006800F0007005901648C6
:100970001038026842F001020260006800F00100D5
:1009800005904FF4C05000900220CDE901010320F2
:1009900003900920049069460C4800F08BF800226F
:1009A0001146132000F0ECF9132000F0DBF90022CF
:1009B0001146142000F0E4F9142000F0D3F906B039
:1009C00010BD0000006400404038024000000240BA
:1009D0007047000000B5184A016889B0914204D1FF
:1009E00007AB6A460021FFF7A8FD00991348A1F262
:1009F0000521072917D20288C9B2521C01EB410315
:100A000002800F49BDF81C2001EB830152BA8A8095
:100A1000BDF81E2052BACA80BDF8202052BA0A8101
:100A20009DF822208A720188B1F5FA7F01D1002158
:100A3000018009B000BD00000064004000000020FB
:100A400018000020704770477047000070B50446DA
:100A500090F82000012804D0606A40F40020606211
:100A600018E0022084F820002068016821F00101CC
:100A7000016000F017F905460EE000BF00F012F922
:100A8000401B0A2808D9606A40F4003060620520E3
:100A900084F82000012070BD20684068C007EDD1B7
:100AA000606270BD7047704770477047704770470D
:100AB000704700002DE9F84FDFF8BCA100220125A6
:100AC00003264FF00F090AF1040BAAF1040E00BF30
:100AD0000B6805FA02F42340A34270D10F7907F0A6
:100AE0000307012F01D0022F16D187684FEA420871
:100AF00006FA08FC27EA0C07D1F80CC00CFA08FC2F
:100B00004CEA070CC0F808C04768A7430C79C4F347
:100B1000001494403C4344600C79E443A4070AD099
:100B2000C4684FEA420C06FA0CF7BC438F6807FA18
:100B30000CF72743C7600C7904F00304022C12D190
:100B4000D40800EB840CDCF820405707FF0E09FAAC
:100B500007F824EA0804D1F8108008FA07F848EAF0
:100B60000408CCF8208004684FEA420C06FA0CF71F
:100B7000BC430F7907F0030707FA0CF72743076018
:100B80004C6814F4403F70D03C4C276847F48047D1
:100B90002760246822F0030704F480440094384C52
:100BA00007EB040CDCF8084897074FEA177809FAB6
:100BB00008F7BC43334FB84202D1002724E054E089
:100BC000314FB84201D101271EE0304FB84201D168
:100BD000022719E02E4FB84201D1032714E02D4F10
:100BE000B84201D104270FE02B4FB84201D10527AD
:100BF0000AE02A4FB84201D1062705E0284FB84243
:100C000001D1072700E0082707FA08F72743CCF8A7
:100C10000878DAF800405746D1F804C09C435FEAF0
:100C2000CC2C00D51C433C60DBF800405F46D1F87B
:100C300004C09C435FEA8C2C00D51C433C60DEF86A
:100C400000407746D1F804C09C435FEA8C3C00D555
:100C50001C433C60084F083F3C68D1F804C09C43EB
:100C60005FEACC3C00D51C433C60521C102AFFF4C8
:100C70002FAFBDE8F88F0000083C01404438024027
:100C80000030014000000240000402400008024021
:100C9000000C024000100240001402400018024004
:100CA000001C0240014880687047000004000020DA
:100CB0000248816802781144816070470400002076
:100CC0000B4810B5016841F400710160016841F4FE
:100CD00080610160016841F480710160032000F0CF
:100CE0006FF80F2000F006F800F024F8002010BD87
:100CF000003C024070B50D4D04464FF47A712878DF
:100D0000B1FBF0F00A490968B1FBF0F000F00CFB10
:100D100048B9102C07D200222146501E00F030F8AE
:100D200000206C6070BD012070BD00000400002038
:100D3000100000200A4808B5016841F480410160B4
:100D4000006800F4804000900548001F016841F0F1
:100D500080510160006800F08050009008BD0000E4
:100D600044380240002809DB00F01F0201219140B5
:100D70004009800000F1E020C0F800117047000039
:100D8000F0B40E4B1B680C46C3F30223C3F10705F6
:100D9000042D00D90425191D072901D2002300E0E4
:100DA000DB1E012606FA05F1491E214099409E40AE
:100DB000761E16403143F0BC00F022BD0CED00E081
:100DC000064900F0070208684FF6FF03184040EAA2
:100DD0000220034A10430860704700000CED00E059
:100DE0000000FA052DE9F0470E46050065D0DFF852
:100DF0001481D8F80000F7B200F00700B04207D223
:100E000088F80070D8F8000000F00700B04254D114
:100E100028683D4C810712D5400703D5206840F46F
:100E2000E05020602878000703D5206840F4604037
:100E300020602068A96820F0F0000843206028782E
:100E4000C0072DD0304968680839012812D002281F
:100E500013D0032811D00968890700292DDA2168E9
:100E600021F0030101432160FFF71CFF814641F29D
:100E7000883A0EE009688903EFE709688901ECE721
:100E8000FFF710FFA0EB0901514502D90320BDE88F
:100E9000F0872068696800F00C00B0EB810FEFD19B
:100EA000D8F80010404601F00701B14207D9077099
:100EB000006800F00700B04201D00120E7E7287881
:100EC000400705D52068E96820F4E0500843206019
:100ED0002878000706D52068296920F4604040EA98
:100EE000C100206000F038F82168084AC1F30311FE
:100EF000515CC8400649086006480068FFF7FAFEE2
:100F00000020C4E7003C0240083802408C1A000868
:100F10001000002008000020044805490068096806
:100F2000044AC1F38221515CC84070471000002080
:100F3000083802409C1A00080448054900680968FE
:100F4000044AC1F34231515CC84070471000002090
:100F5000083802409C1A0008154810B5006810F0C7
:100F60000C02144813D01449042A0FD0082A0ED1B9
:100F70000F4C241F2268236802F03F025B0207D552
:100F80002068C0F38810A0FB010106E0084610BDF0
:100F90002168C1F38811A1FB00010023FFF710F9BC
:100FA0002168C1F30141491C4900B0FBF1F010BDBB
:100FB000083802400024F40040787D012DE9F84F04
:100FC00004006ED02078DFF84C93C007A9F1040527
:100FD0004AD009F104000168C1F38101012908D058
:100FE0000068C0F3810002280AD1D9F8000040024D
:100FF00006D52868800337D560680028E1D033E043
:101000006068B0F5803F10D0B0F5A02F286810D0F0
:1010100020F480302860286820F4802028606068F0
:10102000A8B1FFF73FFE06460DE0286840F4803087
:10103000F4E740F480202860F7E700BFFFF732FEB6
:10104000801B642873D828688003F7D50CE0FFF76D
:1010500029FE064605E000BFFFF724FE801B64283A
:10106000F0D828688003F7D42078DFF8AC828007B6
:101070004FF0000A3ED5A748001D016811F00C0F83
:1010800008D00068C0F3810002280BD1D9F8000015
:10109000400207D42868800716D5E068012800D1EF
:1010A00012E033E1E068B8B10120C8F80000FFF7B2
:1010B000F9FD064605E000BFFFF7F4FD801B02289E
:1010C000C0D828688007F7D52868216920F0F80083
:1010D00040EAC10028600DE0C8F800A0FFF7E2FD7B
:1010E000064604E0FFF7DEFD801B02281FD82868B3
:1010F0008007F7D42078000722D5864F874861699A
:10110000703771B101210160FFF7CCFD064604E0A4
:10111000FFF7C8FD801B022809D838688007F7D57B
:101120000EE0C0F800A0FFF7BDFD064605E082E036
:10113000FFF7B8FD801B02287DD838688007F7D4F8
:101140002078400768D5DFF8CCB100270BF13C0BC5
:10115000DBF80000C0000BD4DBF8001041F0805138
:10116000CBF80010DBF80000012700F08050009061
:101170006B4E3068C00510D4306840F48070306029
:10118000FFF790FD009005E0FFF78CFD0099401AF5
:10119000022850D83068C005F6D55E4EA0686C367F
:1011A00001280FD00528306810D020F001003060F1
:1011B000306820F004003060A068B8B1FFF772FD1D
:1011C00000900FE0306840F00100F4E740F00400C8
:1011D0003060F7E7FFF766FD0099411A41F2883069
:1011E000814266D830688007F4D50EE0FFF75AFDDB
:1011F000009007E0FFF756FD0099411A41F2883050
:10120000814256D830688007F4D42FB1DBF8001043
:1012100021F08051CBF80010A069C8B33D49091DE9
:101220000968C1F3810102294AD00228504607D03B
:10123000C8F8600000E03CE0FFF734FD04463BE006
:101240004746C8F86000FFF72DFD064605E000BFE1
:10125000FFF728FD801B02282BD828688001F7D4CF
:10126000D4E907010843A16A2E4A490802EB01416B
:10127000626A41EA8211084394F82C1040EA016145
:10128000C9F8001001203866FFF70CFD044606E09F
:101290003EE000BFFFF706FD001B022809D82868C2
:1012A0008001F7D534E000BFFFF7FCFC001B0228EB
:1012B00002D90320BDE8F88F28688001F4D427E024
:1012C0000128F7D0D9F80000E26900F480019142CA
:1012D0001CD1226A00F03F01914217D147F6C0713C
:1012E000626A0140B1EB821F10D1A26A4FF0FF3356
:1012F00000F4403103EB5202B1EB024F06D194F8F7
:101300002C1000F07060B0EB016F01D00120D1E72C
:101310000020CFE70438024000004742800E4742D9
:10132000007000400000FFFF10B5401EB0F1807F4C
:1013300001D3012010BD4FF0E02460610F21601740
:1013400000F05EFA0020A06107202061002010BD9F
:1013500070B5040004D094F84100002510B106E0F7
:10136000012070BD84F84050204600F023F824206E
:1013700084F841002068C16821F40051C160204612
:1013800000F076F92068016921F49041016120683C
:10139000416921F02A0141612068C16841F400518E
:1013A000C1606564202084F8410084F842006563D0
:1013B000002070BD10B586B0044614216846FEF7C3
:1013C00037FF14492068884221D113480021026860
:1013D00042F010020260006800F0100005900E4814
:1013E0001438026842F001020260006800F0010057
:1013F00005904FF4C06000900220CDE90101032068
:1014000003900720049069460448FFF753FB06B099
:1014100010BD0000001001404438024000000240AE
:101420002DE9F843044690F84100984616460D46CB
:10143000202802D00220BDE8F88385B17EB10020CB
:101440006064212084F84100FFF72CFCA6848146CB
:10145000E684A0682027B0F5805F02D003E0012079
:10146000E9E7206910B12E4600250EE000260CE0C9
:101470008021204600F082F9A8B9C6B116F8010B08
:1014800021684860E08C401EE084E08C4B464FF0C1
:101490000002CDF800800028EAD14FF0400120463C
:1014A00000F06CF940B184F841700320C3E735F8CF
:1014B000020BC0F30800E3E784F841700020BAE7AC
:1014C000FEE70000104810B50E490160032141609D
:1014D00000214FF400228160C0E903124FF4401252
:1014E00042610176012242768176C17601774177A9
:1014F000FFF79BF9002803D0BDE81040FEF723BF9B
:1015000010BD000000640040D8010020094808B563
:10151000016841F080010160016801F080010091E3
:10152000016841F001010160006800F001000090D5
:1015300008BD0000303802400C4810B50A4901606F
:101540004FF4E1314160002181600C22C160C0E9AB
:1015500004128161C161FFF7FBFE002803D0BDE8E2
:101560001040FEF7F0BE10BD001001400002002048
:10157000FEE7FEE770477047FFF79ABB30B593B0C0
:1015800030216846FEF754FE14210CA8FEF750FEE9
:101590001D480025016841F080510160006800F09D
:1015A000805011901948016841F480410160006841
:1015B000022400F480401190012003901020049038
:1015C000009406940820CDE90750A820CDE909042D
:1015D00004200B906846FFF7F1FC08B172B6FEE7F5
:1015E0000CA90F2081E831004FF4A0500F904FF468
:1015F0008050109005210CA8FFF7F4FB002801D0C3
:1016000072B6FEE713B030BD4038024000700040B3
:101610000248016841F470010160704788ED00E004
:1016200001680C3151E8002F22F4907241E8002348
:10163000002BF5D10168143151E8002F22F001028E
:1016400041E80023002BF5D1016B012909D1016884
:101650000C3151E8002F22F0100241E80023002B4A
:10166000F5D1202180F8421000210163704700006D
:1016700070B5044600680169E26821F440511143E5
:1016800001612169A068E269084361691143084367
:101690002168CA6849F20C639A430243CA60206811
:1016A0004169A26921F440711143416131492068C7
:1016B000884202D03049884202D1FFF73DFC01E068
:1016C000FFF72AFCE2690023192164253226B2F5CE
:1016D000004F626828D0A0FB0101930F9200FEF733
:1016E0006FFD0146B0FBF5F06FF01802504301EBBF
:1016F000800006EB0010B0FBF5F000F0F002B1FB4B
:10170000F5F002EB0012B1FBF5F06FF0180358434F
:1017100001EB800006EB0010B0FBF5F000F00F00CD
:1017200021681044886070BDA0FB010192185B41E4
:10173000FEF746FD0146B0FBF5F00201B1FBF5F006
:101740006FF01803584301EB800006EBC000B0FBBC
:10175000F5F000F0F80002EB4002B1FBF5F0584361
:1017600001EB800006EBC000B0FBF5F000F00700D5
:10177000D6E7000000100140001401402DE9F843B5
:10178000984617460D460446089E24E0701C22D059
:10179000FFF788FAA0EB0800B0421AD8CEB1206853
:1017A000C168490717D5802D15D0402D13D0016889
:1017B000C94309070FD401680025406800902046FE
:1017C000FFF72EFF0820606484F840500120BDE838
:1017D000F8830320FBE72068006835EA000004D0A6
:1017E0000020B842D2D00020F1E70120F9E7FEE75F
:1017F000014A024900F023B8E9180008140000204B
:101800000907090E002804DB00F1E02080F800142D
:10181000704700F00F0000F1E02080F8141D7047C1
:1018200002E008C8121F08C1002AFAD170477047A9
:10183000002001E001C1121F002AFBD170472DE9F1
:10184000F04116460F460446002503E03946B047EE
:10185000641C6D1C20780028F8D12846BDE8F08172
:1018600010B58AB0002101220446CDE90612039189
:1018700004910E20CDE9082005910091019102917B
:1018800069462046FEF7D2FD10B10AA0FFF7B0FF6F
:101890002046FFF7DBF810B10BA0FFF7A9FF0221EC
:1018A0002046FEF752FD002802D00BA0FFF7A0FF54
:1018B0000AB010BD63616E66696766696C746572B3
:1018C000206572726F720A0063616E737461746571
:1018D000206572726F720A0063616E206E766963B2
:1018E000206572726F720A0038B504468DF80000E8
:1018F0000223012269460248FFF792FD204638BDC7
:10190000000200202DED028BFFF7DAF9FFF736FE1B
:10191000FFF7FCFDFFF7D6FDFFF70EFE1448FFF7BB
:101920009FFF144ADFED143A9FED143ADFED142ABD
:10193000002100BF01EB8100F0EE631A00EBC10053
:1019400002EB8000B0EE612AB0EE621AF0EE080AF7
:10195000B0EE430A00F069F8491CC9B20729E9D37F
:10196000B0EE628AB0EE480AFEF7ACFCFAE700007F
:10197000D80100206C0000200060EA4600002042F0
:101980000000000080ED050AC0ED060A90ED071A80
:1019900070EE600A80ED081AC0ED070A90ED000AAB
:1019A00060EE201AC0ED091A90ED0A0A90ED012AA6
:1019B00002EE200A70EEC10A80ED0A0A90ED021ACA
:1019C00020EE812A80ED0B2AD0ED030AB1EE601AD9
:1019D000B4EEC10AF1EE10FA02D8B0EE410A06E008
:1019E000B4EEE00AF1EE10FA01DBB0EE600A80ED31
:1019F0000A0A31EE800A30EE020A80ED0C0AD0EDC0
:101A0000040AB1EE601AB4EEC10AF1EE10FA02D87F
:101A1000B0EE410A06E0B4EEE00AF1EE10FA01DBA6
:101A2000B0EE600A80ED0C0A704780EC050A704742
:101A300010B58AB00C9C18B340F2FF200290002031
:101A40000490059008200690080A8DF800008DF893
:101A50000110100A8DF80200180A8DF804008DF8A4
:101A60000530200A8DF806008DF803208DF8074018
:101A700008AB6A4602A90448FEF779FC0AB010BD1B
:101A800040F2FF10DAE70000D8010020000000005B
:101A9000000000000102030406070809000000001E
:101AA00001020304C41A000800000020180000000E
:101AB00020180008DC1A000818000020300600007A
:101AC00030180008000000000100000010000000B5
:0C1AD000000000000024F40000000000F2
:040000050800018965
:00000001FF
